:020000041803DF
:1040000000B00000A55003184D0700004D07000048
:1040100000000000000000000000000000000000A0
:10402000000000000000000000000000F162031822
:1040300000000000000000004D070000E107000044
:104040004D0700004D0700004D0700004D07000020
:104050004D0700004D0700004D0700004D07000010
:104060004D0700004D0700004D0700004D07000000
:104070004D0700004D0700004D0700004D070000F0
:104080004D0700004D0700004D0700004D070000E0
:104090004D0700004D0700004D0700004D070000D0
:1040A0004D0700004D0700004D0700004D070000C0
:1040B0004D0700004D0700004D0700004D070000B0
:1040C000FEE7000038B500F031FA054600F06EFA60
:1040D0000446002D15D0002C00D101E000F0CCFAF0
:1040E00000F0F5F900BF684600F0FEF900F00EFAA6
:1040F000002805D068460078842108400028F2D0C6
:1041000000BF002C01D100F01DFA00F053FE002C7E
:1041100001D100F057FA002D04D000F0D3F940206F
:1041200000F072F838BD00000AE000BF084AD0680D
:10413000802302469A431A431146054AD16000BFC4
:104140000348C06880210840C0090028EDD17047AD
:104150000014024002480068401C01490860704792
:1041600004170000014600290CDB07480068CB0655
:10417000DB0E01229A401040002801D00120704738
:104180000020FCE70020FAE700E200E010B5022082
:10419000FFF7E8FF002808D1FFF7E4FF002804D16B
:1041A0000420FFF7DFFF002800D001E000F064FAF0
:1041B00013488068FF2109020840000A114908706D
:1041C00000BF0F4A9068420052080123DB071A43E0
:1041D00011460B4A916000BF00F060FB00F070F8E0
:1041E00007484038406B7A21084305494039486305
:1041F00000F0CEFD00F04AF800F01CFA10BD0000FF
:104200004014024092160000401E0028FCD1704766
:1042100010B500F00FFA00F0EBFB00BF0A48006891
:10422000012109060840000E0028F7D100F00EF821
:1042300000F07CFD04484038406B7A2188430249F5
:104240004039486310BD00004014024000BF054AD9
:104250001068082302469A431146024A116000BFC3
:104260007047000040100240074841684807400F6F
:10427000012806D1F02008400009002801D10120C2
:1042800070470020FCE700000010024000B500F07D
:104290004DFD00BD10B500F095F900F0F9F800F003
:1042A0000BFB00F0BBFB00F01BFB72B600F006F945
:1042B00000F022F91920FFF7A7FF00F043F910BD25
:1042C000704772B6704710B50446602000F08CFA53
:1042D00010BD70B504462546E8780322294600F053
:1042E0009FFA70BD10B5044603222146442000F019
:1042F00097FA10BD10B50446204600F085FA10BDAF
:1043000010B50446204600F07FFA10BD10B50446F3
:10431000204600F02BFA10BD70B5044625466A7998
:104320002879296800F02EFA70BD10B504462046A1
:1043300000F01CFA10BD00BFEFF31081084672B602
:10434000704700001FB50546284600F039FD00F013
:1043500039F900F09DF81348806986B21148406928
:1043600087B21048406880B203900E48C469009438
:104370003A4631460020039B00F039F90290009440
:104380003A4631460120039B00F031F9019006497D
:1043900001980843029908430249C86130BF00BF31
:1043A000FEE700000008004850550000002800D13A
:1043B00062B6704770B505460C4600F003F920461A
:1043C000A84700F0BFF870BDF8B504460D462D486B
:1043D000007800283ED000BFEFF3108000280AD0FC
:1043E00000F0F0F800F08DF82846A04700F097F8AC
:1043F00000F0A8F845E0FFF79EFF064600F0E2F85F
:1044000000F07FF82846A04700F09EFC07461920E0
:104410008001FFF7F9FE01201B4908703046FFF7C5
:10442000C5FF1A48844201D1012000E0072001465F
:104430000022384600F08EFCFFF77DFF064600F0B4
:104440006EF83046FFF7B2FF00200F49087000F009
:1044500079F816E0FFF76FFF064600F0B3F800F0BA
:1044600050F82846A0470120074908703046FFF75A
:104470009DFF00F054F800200349087000F062F836
:1044800000BFF8BD8B160000441600008109000033
:1044900010B5B92000F0A8F910BD70B505460C465E
:1044A000284600F089F8204600F046F870BD00006C
:1044B00001480078704700004616000010B500F073
:1044C0000BF910BD10B57A2000F08EF910BD10B5B3
:1044D000752000F089F910BD10B50446012221466F
:1044E000052000F04FF910BD10B504460122214609
:1044F000352000F047F910BD10B5AB2000F074F97D
:1045000010BD10B5062000F06FF910BD08B5684663
:10451000FFF7E2FF68460078C007C00F08BD10B57E
:1045200000BFFFF7F3FF0028FBD110BD0148007862
:1045300070470000441600000149087070470000F1
:104540004416000038B500F031F8002800D038BD1E
:10455000FFF7F1FE04462021012000F0F1F9EB21E4
:1045600068460170807881088900891C68468170DE
:10457000807804218843011D684681708078082175
:10458000884341186846817080781021884341181B
:10459000684681702021417000F074F8012000F01D
:1045A0000BF82046FFF702FF00BFD0E70148407834
:1045B0007047000044160000014948707047000031
:1045C0004416000010B5FFF7F1FF002800D110BD20
:1045D000FFF7B1FE04460021084600F0B1F90020C3
:1045E000FFF7EAFF2046FFF7E1FE00BFEFE770B5F7
:1045F0000446049D0120A040084000280CD0012062
:10460000A0401840002803D066000120B04070BDD3
:1046100066000220B040FAE70120A04010400028C8
:1046200003D166000220B040F1E766000320B040ED
:104630002840ECE70E48C0690121C9020840C00AC1
:10464000002800D170470B488068C007C00F0028C1
:1046500000D1F7E707480069002801D000BFFEE756
:1046600004484068642801D200BFFEE700BFE9E7C4
:1046700000100240001C0240FFF723FE00BFFEE7CF
:10468000002070474178114A916201788278520780
:10469000D20F120301231B031A4011438278120721
:1046A000D20F12041B011A4011438278D206D20F96
:1046B00012051B011A4011438278120603231B06C0
:1046C0001A401143014A5160704700000000024047
:1046D000004870470202040010B500F01BF80020EB
:1046E0000B49C862FFF7F4FF0949C86000F03CF8C5
:1046F00040001E21084006490861FFF7C1FFC004C1
:104700000F21C904084081300149086010BD000034
:104710000000024000BF0E4A9069130402469A430B
:104720001A4311460A4A916100BF00BF90690246D0
:104730009A431146064A916100BF00BF506A024683
:104740009A431A431146024A516200BF7047000063
:104750000010024000BF03480068C00F0028FAD0D4
:1047600070470000000002400220704710B5044668
:10477000024A0349204600F067F910BD49110000C4
:10478000B91100007FB505460E461446002C02D034
:10479000082C00DC01E0FFF76FFF00960198000A8B
:1047A0000002E9B2084301906846007A0421884378
:1047B000014668460172007A08218843014668462E
:1047C0000172007A20218843014668460172007A0E
:1047D0004021884341186846017284810021C173D9
:1047E000FFF7C4FF7FBD000010B504462006000E91
:1047F0000006401C0349086101204861FFF7AAFF39
:1048000010BD00008000024010B50446024A034972
:10481000204600F019F910BD71120000D9120000F5
:104820007FB505460E461446002C02D0042C00DC51
:1048300001E0FFF721FF00960198000A0002E9B2AB
:10484000084301906846007A04218843014668467F
:104850000172007A08218843014668460172007A95
:1048600020218843014668460172007A402188432E
:1048700041186846017284810021C173FFF7C4FFAB
:104880007FBD70B50B46044603E01D7825705B1CA8
:10489000641C1546521E002DF7D170BD0448806877
:1048A0000721C906884303490843014988607047C6
:1048B000401402408A008A08064880687121084036
:1048C000002803D004480349086002E00348014976
:1048D0000860704740140240088000000AA00000F1
:1048E00010B5164B1868002100220123DB05034098
:1048F000002B03D0022319431B031A4301235B0639
:104900000340002B03D0082319431B031A430B4B0E
:104910001B688B431343094C236000BF074B186887
:104920000123DB050340002BF8D101235B06034084
:10493000002BF3D1014C236010BD00004014024055
:1049400030B585B004460D4604A800900198000AD1
:104950000002EB3001900198C0B201906846007AE5
:1049600081088900491C68460172007A0421884345
:10497000011D68460172007A082188434118684683
:104980000172007A10218843411868460172007A4A
:1049900020218843411868460172007A40218843EB
:1049A000A101402211400143684601720121818129
:1049B0008573C173FFF7DAFE6846007C3C2800D19E
:1049C00001E0FFF759FE05B030BD00000649086858
:1049D00080F3098800BF0549087880F31488BFF385
:1049E0006F8F00BF704700008C160000901600000B
:1049F00007480069042108430549086105488068A3
:104A00000721C90688430449084302498860704762
:104A100000ED00E0401402408A008A00404649460A
:104A200052465B46FFB500F06DF90860FFF7F0FBFA
:104A300030BFFFF7CBFFFFF7A9FBFFBC80468946DD
:104A400092469B4600BD0000FEB504460E46174642
:104A500001200190A089042803DC257B002001901F
:104A60000CE020788007800F002805D02078800790
:104A7000800F0421081A00E00020C5B2002D03D1E8
:104A80000C48864200D10425FFF755FC0090A07B1E
:104A900009498862E37B29462046019AB047E27BB8
:104AA000A3895B1B99B223685819B8470098FFF790
:104AB0007DFCFEBDB9110000000002407CB505463A
:104AC0000C461646B002012189020840072109045C
:104AD00040181030144908610FE011201249486154
:104AE0002046083884B2FFF735FE0F48006A286078
:104AF0000D482030406868600835082CEDDC002C3B
:104B000011D0012008494861FFF724FE0648006AD9
:104B100000900548203040680190224669462846AA
:104B2000FFF7AFFE00BF7CBD80000240F8B5044631
:104B30000D4616461F4620790006000E0006217A13
:104B40004906C90F0843B9020122920211400843E5
:104B5000217A0907C90F4900022211400843217A2E
:104B6000C906C90F4902120211400843217A89037C
:104B70000322920311400843217A4907C90FC90053
:104B8000082211400843217A8906C90F89000422AE
:104B900011400843691E090407221204114008430A
:104BA000002D01D0012100E0002109011022114057
:104BB00008430B4908616068000A886130011021D0
:104BC0000840401C06494861FFF7C4FD0448006ADC
:104BD00000902A4669462068FFF753FEF8BD0000A2
:104BE0008000024070B505460C461646B002012111
:104BF0008902084003210905401820301249086144
:104C000009E0114928688862112048612D1D201F84
:104C100084B2FFF79FFD042CF3DC002C12D0B0020D
:104C2000012189020840611E090507221205114071
:104C300008432030044908612868886201204861DF
:104C4000FFF788FD70BD000080000240F8B5044603
:104C50000D4616461F4620790006000E0006217AF2
:104C60004906C90F0843B9020122920211400843C4
:104C7000217A0907C90F4900022211400843217A0D
:104C8000C906C90F4902120211400843217A89035B
:104C90000322920311400843217A4907C90FC90032
:104CA000082211400843217A8906C90F890004228D
:104CB00011400843691E09050722120511400843E7
:104CC000002D01D0012100E00021490120221140E6
:104CD00008430B4908616068000A88612A466846F3
:104CE0002168FFF7CEFD0649009888623001102147
:104CF0000840401C02494861FFF72CFDF8BD000048
:104D00008000024000BFEFF314800649087000BF26
:104D1000EFF309800449086000BFEFF30880002129
:104D200070470000901600008C1600000448406890
:104D3000044908400349F931401801494860704767
:104D40000010024008FFFF7F014800687047000024
:104D5000041700000FB4F8B505460E46AC1900BFA5
:104D6000089800280BD009A8009008990098884757
:104D7000002804D00020F8BC08BC04B01847FFF796
:104D8000E3FF011B00BF0029EADB0120F3E700007D
:104D9000002009E00649496BC90F002900D004E052
:104DA000282800D901E0401CF4E700BF704700004C
:104DB0000014024003B40148019001BD41B803183A
:104DC00003B40148019001BD61D30318323032347D
:104DD00030323230313935313531000000000000D9
:104DE0000000000058140000DDA3031800000000BC
:104DF000000000003532306361696D6569000000B4
:104E0000000000000000000000000000801400000E
:104E10008D1400000000000037170000000017008C
:104E200094140000A8140000FF000000758A031805
:104E3000258B0318998A0318000000000000000069
:104E400054170000E9900318A19103181D9103184D
:104E5000898F0318B58F031851900318ED8F03182D
:104E6000AD910318799203180000000000010000C2
:104E700000000000EDA80318C5A8031800010000F9
:104E80000000000069A4031841A4031800010000F9
:104E90000000000081A7031859A7031800010000B3
:104EA00000000000A5A803187DA803180001000059
:104EB00000000000C9A70318A1A703180001000003
:104EC000000000005DA8031835A8031800010101C7
:104ED00075930318999F031800000000000000005C
:104EE00085940318D9930318C1930318A994031840
:104EF000B4190000B421000000000000010100000E
:104F0000B19E0318419F0318159F0318000000006D
:104F10000000000000000000000000000000000091
:104F20000000000000000000000000000000000081
:104F30000000000000000000000000000000000071
:104F40000000000000000000000000000000000061
:104F50000000000000000000000000000000000051
:104F60000000000000000000000000000000000041
:104F70000000000000000000000000000000000031
:104F80000000000000000000B4190000CD9D0318CF
:104F9000000000008D9E0318019703181598031850
:104FA000E59B0318B99C03180000000000000000F6
:104FB00000000000000000000000000000000000F1
:104FC00000000000000000000000000000000000E1
:104FD00000000000000000000000000000000000D1
:104FE00000000000000000000000000000000000C1
:104FF00000000000000000000000000000000000B1
:1050000000000000000000000000000000000000A0
:105010000000000000000000000000000000000090
:105020000000000000000000000000000000000080
:105030000000000000000000000000000000000070
:105040000000000000000000000000000000000060
:105050000000000000000000000000000000000050
:105060000000000000000000000000000000000040
:105070000000000000000000000000000000000030
:105080000000000000000000000000000448854609
:1050900000F076FE0048004741D40318C046C046E1
:1050A00000B00000014CA047014C204785AA03181E
:1050B0008D500318F0B51FB40646002082B0054697
:1050C0004024019100901BE0019922460F46304692
:1050D00000F0CCF8049A059B801A994110D3104631
:1050E0001946224600F0B2F8361A8F41019722463F
:1050F00001200021009F00F0A9F838184D410090D0
:105100002046641E0028DFDC019B009829463246B9
:1051100007B0F0BDF0B51FB486B00020009001903C
:1051200002900698069980B204900798090C020430
:105130000014114307900027089D099806913E46E8
:105140003C4603900398A9B20204000C0390049813
:105150002D0C154348430021224600F077F8C7196B
:10516000714110340E46402CECDB3846029A00F0B8
:105170006DF8009A019B80180090594102980191A6
:10518000103002904028CCDB00980BB0F0BD00003E
:105190000549064A08685043054A801808604008D7
:1051A00070470149086070470C1700006D4EC641FA
:1051B0003930000003460B439B0703D009E008C9C0
:1051C000121F08C0042AFAD203E00B780370401CB7
:1051D000491C521EF9D27047D2B201E00270401C45
:1051E000491EFBD270470022F6E710B513460A4667
:1051F00004461946FFF7F0FF204610BD03460A7823
:105200000270401C491C002AF9D118467047000062
:105210000FB400B58DB009900B9010A9002000913B
:10522000C0430A9000200C9006480690064807905C
:105230006A4609A80F9900F0A9FB0DB008BC04B09C
:1052400018470000AD590318CD59031810B5202A8E
:1052500004DB0146203A9140002010BD91402023FC
:105260009C1A0346E3401943904010BD10B5202A14
:1052700004DB0846203AD040002110BD0B46D34045
:10528000D0402024A21A91400843194610BDFFB512
:105290000025ED4385B00020009001909F685E6876
:1052A0001C46A1696D1C069888470290216A8847B0
:1052B0000028F6D10298401C0CD0032040028643FF
:1052C000002F19DD700614D502982B2809D02D283F
:1052D0000FD103E00020C04309B0F0BD01208002DF
:1052E0000643A1696D1C069888477F1E0290002F17
:1052F00002DD0298302803D00798002828D024E047
:10530000012040020643A1696D1C7F1E0698884754
:105310000290002F03DD782805D0582803D0079885
:10532000002810D011E00798002801D010280CD1D7
:10533000012040028643A1696D1C7F1E06988847A4
:105340000290102000E008200790C017039016E09C
:105350000A20F9E70120400206437F1E039B079ABB
:1053600001990098FFF7D6FE029AD3178018594189
:1053700001910090A1696D1C069888470290002F4A
:1053800006DD0799029800F027FD02900028E1DA77
:10539000E16906988847B00502D40120C0439BE725
:1053A000F00710D1700610D5700505D50098019B47
:1053B000002241429A4101E0019A00992068031DB0
:1053C0002360006806C0284686E72068011D21602A
:1053D0000068019A0099F5E7FFB50027FF4383B005
:1053E00000205C6801909E681D46A9697F1C049896
:1053F00088470090296A88470028F6D10098401C09
:105400000CD0032040028443002E19DD600614D521
:1054100000982B2809D02D280FD103E00020C0438D
:1054200007B0F0BD012080020443A9697F1C0498E5
:105430008847761E0090002E02DD0098302803D0A9
:105440000598002825D035E0012040020443A969D1
:10545000761E7F1C049888470090002E03DD782874
:1054600005D0582803D00598002810D022E00598D0
:10547000002801D010281DD1012040028443A969D1
:10548000761E7F1C049888470090102002E00820B8
:1054900000E00A2005900DE0012149020C43059A25
:1054A0000199761E514308180190A9697F1C049840
:1054B00088470090002E05DD0599009800F08CFCCF
:1054C0000028E9DAE96904988847A00502D4012098
:1054D000C043A5E7E00722D1600611D56005019819
:1054E00000D5404229680A1D2A600968220501D5B5
:1054F000087014E0220701D5088010E008600EE073
:105500002868011D29600068210502D501990170F4
:1055100005E02107019901D5018000E001603846CE
:105520007EE7FFB5002083B000905068019091693C
:105530001446002697680498884705460C990698F3
:10554000084305D009E0A169761C04988847054600
:10555000216A284688470028F5D1681C03D00198A5
:10556000C00704D017E00020C04307B0F0BD20689A
:10557000011D2160006800900DE00198C00704D172
:10558000009805700098401C0090A169761C7F1E51
:10559000049888470546002F1CDD681C1AD0069821
:1055A00000280FD0E817C00E401941118A00069953
:1055B0004009511840012A1A09680120904001420F
:1055C000DBD107E00C980028D7D1216A284688470C
:1055D0000028D2D0E169049888470C98002807D1A8
:1055E000002E05DD0198C00702D10098002101704E
:1055F000A068B84204DD0C98002804D0002F02D027
:105600000120C043B1E73046AFE70000FFB508789E
:1056100089B01546FF2805D0491C2D2804D000224A
:10562000002407E000240BE00122F9E70A235C4391
:105630000419491C0878FF28F8D1002A00D06442D8
:10564000002004902A7801462D2A01D02B2A0FD160
:105650006D1C2D2A02D00022049209E00122FBE7F2
:1056600000260A2233466D1CFFF754FD381871419D
:105670002F78FF2FF4D10C9AA218069202460A4303
:1056800004D0FF23069A9133DA4205DA0021099803
:105690000A4606C00DB0F0BD0024B74AB54D2646F7
:1056A000079200F0A7FD029006980391002801DA06
:1056B000474200E0074639050020AF4A001C51412F
:1056C0000191009012E0F80707D022462B463046A1
:1056D000079900F041FA0646079122462B461046EC
:1056E000194600F039FA04460D467F10002FEAD122
:1056F0000698019B0028009A0399029806DA00F0A8
:1057000093FA3246079B00F08FFA05E000F024FA86
:105710003246079B00F020FA049A002A02D00122A8
:10572000D2075140099A03C2B4E7FFB591B00020F7
:1057300009900025ED432E209E685C681F4601906D
:10574000B9696D1C129888470090396A884700280B
:10575000F6D10098401C0AD00D20C0018443002ED1
:1057600012DD00982B2809D02D280DD103E0002050
:10577000C04315B0F0BD012080020443B9696D1C1F
:1057800012988847761E009003A9600501D52D2048
:1057900000E02B206A461073491C0CA80F91029060
:1057A0000AE0B9696D1C12988847009001204002F8
:1057B00004431398761E0560002E02DD0098302801
:1057C000EFD001990098884246D18020044308E038
:1057D0000998401E09900120400204431399681C57
:1057E0000860B9696D1C761E1298884700903028B1
:1057F000EED031E00199884205D1200603D4802003
:105800000443761E1EE0009805F068FB002826D0B1
:1058100001204002044307A90F980331761E8842F5
:105820000BD200980F99303808700F98401C0F90D9
:10583000200607D50998401E03E0200602D40998E7
:10584000401C0990A00502D51399681C0860B9692D
:105850006D1C129888470090002ECBDC59E0002E7A
:1058600057DD0098652801D0452852D1A00550D5B4
:10587000032000028443B9696D1C761E1298884784
:105880000090002E0CDD2B2804D02D2808D1FF20FD
:1058900001300443B9696D1C12988847761E009048
:1058A000E00501D52D2100E02B210298017002981E
:1058B000401C0290019025E00120400204430EA903
:1058C00002980131761E88420ED200980299303833
:1058D0000006000E087003D10299019881420AD98E
:1058E0000298401C029006E0E00501D5234801E043
:1058F000224840420990B9696D1C1298884700906F
:1059000013980560002E04DD009805F0E7FA0028E2
:10591000D2D1F969129888470F99FF20087002992F
:1059200003AA087000200A900B900CA90AA8099BF2
:10593000FFF76CFEA00502D40120C04319E7242024
:10594000044209D0E00713D138680B9A0A99031D65
:105950003B60006806C00BE00B990A9800F058FC09
:105960000146E00704D13868021D3A600068016012
:105970002846FEE6000014400000F03FF1D8FFFF8B
:1059800002681378511801601846704710B5D1604D
:10599000044951610449116200211161114600F06E
:1059A0002BFA10BD81590318CB5D03184268002AF9
:1059B00008D001680B78491C002B03D0521E06C08A
:1059C000184670470121C160881E70474268002A4E
:1059D0000BD0C3680168002B07D183688B4204D0C9
:1059E000491E521C06C0002070470020C04370476B
:1059F000F0B507460846584087B0C00F04904800ED
:105A00000E46590040084908BC1A884105D238465C
:105A100031461E4617460B460246580040081043C2
:105A20004DD0300D039040055900400D490D0590B3
:105A3000401A0290402873DA18030121000B09056F
:105A40000843019004980092002806D01146019A5C
:105A500049420020904100910190029840210A1A89
:105A600001990098FFF7F2FB05460C466B4607CB01
:105A700000F098F9C0197141039A0E0D0023D71751
:105A800056401A467A40164344D0049A002A2DD034
:105A9000029A012A039A15DC1205C01A91410126C7
:105AA0003605001C7141D20F059ED207009301926A
:105AB00002962A46234600F04AFB07B0F0BD38465E
:105AC0003146FAE71605234A0F46B218C01AB74105
:105AD00001210905001C4F4100187F41114618188B
:105AE0007941E20F10436D19644113E0E2076D083C
:105AF00015436408C2071443039A01261205C01A0D
:105B000091413605001C7141CE07400830434908D9
:105B1000C01851412A46234600F00CFBCDE7FFE7B1
:105B2000049801224000C117121A00238B410498E7
:105B30003146C417381AA141EEE730B40124E40716
:105B4000634030BC54E730B40124E407614030BC0A
:105B50004EE700000000E0FFF0B51FB488B00B99DD
:105B60000998002448400999C00F49004908099143
:105B7000C0070B990090490049080B9109990898B2
:105B8000A64608431CD00B990A98084318D00998D8
:105B900001244000420D4800410D099824050003EE
:105BA000000B204309900B980003000B20430B903F
:105BB00050181C494018002201901446104605E078
:105BC000002001460DB0F0BD032801DA034600E0D5
:105BD00003239C46C11A0AAE0AE05F0008ADED5BE4
:105BE0004F00F75B7D430027AA187C41491C5B1ED0
:105BF0006145F2DD410004AB5A522104120C0A4304
:105C0000240C401C0828DFDB0198029000997046A4
:105C100001910090059B049A0799069800F097FA65
:105C2000D0E700000DFCFFFFF0B50C465C4085B0EE
:105C3000E40FE40703944C000026640859009446DE
:105C4000490802460296224321D062460A431ED0EA
:105C50006200570D4A000E032303550D012402462E
:105C60002C492405781B1B0B360B40182343264375
:105C7000614600901C46501AB44103D30098401C62
:105C8000009002E0921800985B41002803DA00209F
:105C9000014605B0F0BD00200121090507468646F2
:105CA00011E064461D46141BB54106D36546521BE0
:105CB000B341744607430C43A646CD074008490844
:105CC000284392185B4105460D43EAD1104618431C
:105CD00013D06046194650407140084306D06046D4
:105CE000101AB34106D20122002306E0002201234C
:105CF000DB0702E00122D2435310009874460105ED
:105D0000381C6141029C039D0019694100F012FAA0
:105D1000BFE70000FD0300004A0009030123090B4F
:105D20001B0519430A4B10B5520D9A4202DA0020A6
:105D3000014610BD064B34339A4203DC9A1AFFF732
:105D400095FA10BD034BD218FFF780FA10BD000082
:105D5000FF030000CDFBFFFF10B5002904DB012489
:105D6000E40740428C412146002B04DB1C46012302
:105D7000DB075242A341994200D1904210BD00007E
:105D8000064C0125064E05E0E36807CC2B430C3C8E
:105D900098471034B442F7D3FFF77CF990FF03180B
:105DA000D0FF031810B5202A06DBCB170846203A8F
:105DB0001041C1170B4306E00B461341D04020248D
:105DC000A21A91400843194610BD10B50F21C0B268
:105DD000490200F039FA10BD3A2800D230382023A9
:105DE00002469A43412A01D310463738884201D3EC
:105DF0000020C04370470000F3B58DB000200A902A
:105E000001200B90002608460C300C460990626970
:105E1000012109989047051E2ED0252D2DD0216AED
:105E20008847002818D06269012109989047216AA3
:105E300088470028F7D1411E62690998904700E021
:105E4000761CA1690D988847216A88470028F7D1F8
:105E5000E1690D988847DAE7A1690D9888470746F8
:105E6000A84201D1761CD2E7E1690D9888477F1CD2
:105E700002D10A98002877D04AE1002762693D469E
:105E80003946099890472A280CD16269012109985E
:105E90009047012506E00A214F433F18303FEBD4DD
:105EA0001020054362690121099890470146303965
:105EB0000A2903D29C498F42DEDCECE7E90600D4D4
:105EC0009A4F6C280AD04C2810D0682824D06A2811
:105ED0002ED074280CD07A280AD00DE062690121F6
:105EE000099890476C2823D004211CE0202005430A
:105EF0006269012109989047A760656065284FD0C5
:105F000026DC582839D01ADC452849D012DC25284F
:105F100034D04128B0D143E062690121099890470B
:105F2000682802D008210D43E6E70120C002DEE721
:105F30000220DCE7462833D047282CD130E05B280C
:105F400070D061282CD063286CD0642823D161E004
:105F50006F284FD009DC662822D0672820D0692816
:105F600026D06E2817D12EE0CEE070284DD07328B1
:105F70006FD075284ED078280DD154E0A1690D98C6
:105F800088470546252800D16CE7E1690D988847C8
:105F90006D1C00D16DE7BBE00A224CE00A2252E002
:105FA000012023466A46C0430D99FFF7BEFBA4E0DB
:105FB0002846402108436060A807234601D50022F7
:105FC00039E000223FE0E80700D020E72068011D0B
:105FD00021600068290501D5067018E7290701D559
:105FE000068014E7A90703D5F117066041600EE7A4
:105FF00006600CE72846402108436060A807234656
:1060000001D5082217E008221DE04949284608402A
:10601000606016E02846402108436060A8072346D8
:10602000BCD5B9E715E02846402108436060A807C1
:1060300007D5234610220120C0430D99FFF727F909
:106040005BE0234610220120C0430D99FFF7C4F9FD
:1060500053E000210C910B460091632802D05B288D
:1060600008D044E02079C00601D40120A0600120BE
:1060700000903CE062690121099890475E2805D1B3
:1060800001200C9001466269099890472169002916
:1060900006D10B4601AA8F00491CD3510829FADB0F
:1060A000002835D0216900290ED1C117C90E091861
:1060B0004A11930001AA9A1849094901411A01207D
:1060C000136888400343136062690121099890476F
:1060D0005D28E5D10C98002808D0002001AB810094
:1060E0005A58401CD2435A500828F8DB01AB012013
:1060F0002246C0430D99FFF714FA00280ADA401C23
:1061000006D10B98002803D00020C0430FB0F0BD8B
:106110000A98FBE7E90702D10A99491C0A91361847
:1061200000200B9073E60000CCCCCC0CFFFFFF7F6F
:10613000F1F7FFFF10B5002B08DA0024401C614185
:1061400092185B411A4301D14008400010BDF0B5E0
:106150001FB482B005460C0003D0084604F0FAFCD8
:1061600002E004F0F7FC2030024600902146284669
:10617000FFF76CF8049B059A04460F461843114339
:10618000084314D0184610431BD0009840210A1A27
:1061900018460599FFF76AF805460E46009A0599D4
:1061A0000498FFF753F8084305D0012004E0204687
:1061B000394607B0F0BD0020C11705430E432C43FC
:1061C000374300990E986305401A7905E40A0022C6
:1061D0000C43FD0A0A3002D500200146E9E701051B
:1061E000101969410C9C0D9D00196941FFF7A2FF30
:1061F000DFE700000EB5054A029200220092134626
:106200000192FFF7A4FF03B000BD000033040000BB
:10621000CB0FDB07490010B5490802460A4307D0F7
:106220000A0D07240903E401090B121B002A01DCF3
:10623000002010BDC900440F0C43C100E018D20576
:10624000801800F013F810BD7F2801D9002207E064
:10625000054B42089A5CC00700D112091207120FC1
:106260000120904008407047C8FC0318002904DA58
:10627000401C490001D140084000704770B4002420
:10628000050C05D11024000402D1002921D01124CD
:10629000050E01D100020834050F01D10001241DB3
:1062A000850F01D18000A41C002801DB4000641C84
:1062B000002908D020252E1B0D46F540A14000D016
:1062C00001212943084301061B1B000ADB1D02D5DF
:1062D000002070BC7047DB05181880180029F8DA18
:1062E000401C4900F5D170BC4008400070470000D8
:1062F00004207146084202D0EFF3098001E0EFF379
:10630000088001490847000061AA0318024B1B8955
:106310000380002383707047987F00000EB4FFB5A0
:1063200004000026FF2709AB1B7801930AAB0393F7
:10633000019B9E4205D1200004B0F0BC08BC03B014
:106340001847039B01361A000C3203929A681868AA
:10635000551CEDB259683A40257060700135A01C9B
:10636000FDF77CFD6419E3E70020704700207047CB
:1063700070B588B06B46062602AC22000120D91DFC
:10638000DE71002501F046FEA84214D0022104A8C7
:1063900007F072FE320004A92000FDF75FFD4023E4
:1063A00062795B42134363716B4622000120D97905
:1063B00001F0A2FE013510232100042004AA23705D
:1063C00001F028FE002811D1002D18D10D4903201D
:1063D000FBF778FC0322072101230B48FBF73AF96E
:1063E00001230370FBF75AF908B070BD042104A81B
:1063F00007F042FE0420217804AA01F07DFE01F09E
:10640000C7FEE3E764FD0318020D000070B5050048
:106410000C001E00032A04D0D8229449944806F0A8
:1064200089FE280A310A242800D15CE111D80B38F2
:1064300083B2092B17D8092815D8FDF7F7FC4101BD
:106440007000B200210014001400140014001400A5
:106450004901C72800D142E107D8262800D140E1F0
:10646000C62800D141E1002070BDC82800D131E12B
:10647000804BFD28F7D1210028001B689847F2E7E0
:106480007D4B9D4213D87D4BE8181B28EBD8FDF7B8
:10649000AFFC161AEA1EEAEAEAEAEA423EEAEAEA49
:1064A000EA36EA3AEA22EA26EA2AEA2EEA32E3233E
:1064B0001B019D42D7D1200001F058FAD3E72000FC
:1064C00001F048F9CFE7200001F066F9CBE72000A2
:1064D00001F07CF9C7E7200001F07EF8C3E7200057
:1064E00000F0C6FFBFE7200001F088F9BBE72000FD
:1064F00001F078F9B7E7200001F072FAB3E7200065
:1065000001F044FAAFE7200001F060FAABE72000A9
:1065100001F0BCF9A7E7200001F01CFAA3E7584BF3
:10652000E81817289FD8FDF763FC0C9E109E1418DE
:106530001C209E249E9E282C9E9E9E9E9E309E34B5
:106540009E38200001F01CFB8DE7200001F008FCC4
:1065500089E7200001F0AAFB85E7200001F08CFB11
:1065600081E7200001F06CFB7DE7200001F050FB8B
:1065700079E7200001F002FC75E7200001F0B0FB94
:1065800071E7200001F0CCFB6DE7200001F00AFC70
:1065900069E7200001F010FC65E7200001F0DEFA59
:1065A00061E7384B9D4200D95DE7374B9D421AD8D1
:1065B000364B9D4270D0364B9D4253D01C3B9D4282
:1065C00000D050E72378AA2B00D94CE79F2B16D890
:1065D000032B26D0172B39D0012B00D043E760784E
:1065E00000F0B0FD3FE72B4BE818042800D93AE74C
:1065F000FDF712FC56005A0039FF5E0062001800D9
:10660000A0380A2800D92EE7FDF706FC0F000F007E
:106610000F000F00140018002DFF1C002DFF240098
:106620002800607800F0ECFD1DE71800617800F0AC
:1066300005FD18E7607800F00BFE14E7607800F0C5
:1066400039FE10E7607800F01FFD0CE7607800F07D
:10665000C3FA08E7607800F099FD04E7607800F07D
:10666000E3FD00E7200000F037FDFCE690FD031895
:106670007CFD0318548000001B0E000000F2FFFF99
:1066800000F4FFFFA80D0000A30D0000150D000091
:106690001C0D00005CF2FFFF200000F08FFAE2E624
:1066A000200000F0A3FCDEE6200000F0A5FCDAE606
:1066B000200000F0F9FCD6E6200000F057FDD2E6FD
:1066C0000D4B9D4200D0CEE6200000F0F5FDCAE65D
:1066D0000A4BD0E62100280001F078FEC3E6084B03
:1066E000C9E6084BC7E6084BC5E6084B0A00280078
:1066F00021001B689847B6E6010B0000508000009F
:106700005C800000588000004C8000004880000041
:1067100000207047002070470020704710B5062207
:10672000FDF78EFB43425841C0B210BD10B50D209D
:10673000134904F0EDFF134C1E20210004F0E8FF84
:1067400021001F2004F0E4FF2100032004F0E0FFFB
:106750002100132004F0DCFF01F0BEFC0A4B0B4AC1
:106760000B481A600B4A5A600B4A9A6001F0D4FB3E
:1067700007F0E6FBFAF720F800F034FB10BDC04646
:10678000AD870318510700000C06000015800318A0
:106790001C060000F9800318D17F031810B5DFF73D
:1067A00035FFFAF7BBFB10BD9422114BD2031A60E0
:1067B000104B114A1A60114B114A1A60114B124AC0
:1067C0001A60124B124A1360124A1360124A136085
:1067D000124B134A1A60134B134A1A60134B144A94
:1067E0001A60144B144A1A60144B154A1A60704709
:1067F00070000050740000502050000078000050DD
:106800004000C0C87C00005000E400E47302460071
:106810008000005084000050880000508C00005020
:106820007302000090000050021C1C0094000050F5
:10683000020E0E0098000050362664039C000050A3
:106840001600030310B5304A1368002BFCD0A023B8
:106850002E4ADB051A602E4B2E4A2F4C1A602268F6
:106860002E4B1A60228C2E4B1A6000222D4B1A6080
:10687000FFF79AFF2C4B2D4A2D481A6062682D4B6A
:106880001A60A2682C4B1A60E2682C4B1A602269CD
:106890002B4B1A6062692B4B1A602B4B2B4A1A60E8
:1068A000702301780A1D5A4302315432FF32C9B2B3
:1068B000090492080A4326490A60618C254A11603E
:1068C0001021254A11600278111D4B4303215433D6
:1068D000FF338B43911C0C224A4303329B181F4AFF
:1068E0009B081278120413431D4A1360A28C1D4B9F
:1068F0001A60A2691C4B1A60E2691C4B1A60E28C98
:106900001B4B1A6010BDC046040000500707100062
:106910000C0000501E000100647F000018000050B1
:10692000280000502C000050E00000502C017C0199
:1069300001060000E4000050E8000050EC000050A8
:10694000F0000050F400005020010050D90296FFE2
:10695000300100503401005038010050030600009F
:106960006001005064010050680100506C0100504B
:1069700080010050124B1A68124B1A60124A1268BA
:106980005A60124A12689A60114A1268DA60114A13
:1069900012681A61104A12685A61104A12689A61A4
:1069A0000F4A1268DA610F4A12681A840E4A126896
:1069B0005A840E4A12689A840D4A1268DA84704723
:1069C00018000050647F0000E4000050E800005010
:1069D000EC000050F0000050F4000050680100503E
:1069E0006C01005028000050340100506401005038
:1069F0008001005010B5F9F77DFF10BD154B03382D
:106A000010B51860FAF7DAFC002804D04021124AC9
:106A100013688B431360114B114C1888F9F7B2FFC0
:106A2000F82380029B040440184205D000220D4B3D
:106A3000110001201B6898470B4B0C4A234313603D
:106A400007230B4A11680B43136005F03FF8FFF76B
:106A500091FF10BD3400005018000050A4FC031832
:106A600000FCFF0354060000010020003C00005021
:106A7000300000502A4AF0B516889446F2430400CC
:106A80000021284B85B000AF1B783A60CDB2AB42F5
:106A90000ED9796078683A680131024101200242DA
:106AA000F4D00200796825708A40614632430A803A
:106AB0006A46FB730733DB08DB00D31A9D460F23BE
:106AC0006A464F20F9186E4601F0A4FA002822D138
:106AD000144AFB7B1278AA4218D19D4204D031227D
:106AE0001149124806F026FB357830002570FC7BF2
:106AF000711C013C2200FDF7BAF935553200F97BD3
:106B00004F2001F0F9FABD4605B0F0BD2278F254ED
:106B10000133FB73F2E70123FB7323783370EDE756
:106B20007080000044800000B0FD0318C9FD031808
:106B3000F0B506000F00150097B0002934D03F22B1
:106B4000437900249343402B12D1184B0100393A6A
:106B500017481D60FDF782F901F03EFC17B0F0BD4B
:106B6000144B01221B882341134207D10134E4B2A4
:106B7000114B1B78A342F3D8FF2013E0200001A99A
:106B800000F03CF852236B441B78BB42EED131003D
:106B900013A8FFF7C3FD0028E8D0074B20001B789F
:106BA000A342E9D9A847D9E70C00E1E768800000D3
:106BB000608000007080000044800000002210B55A
:106BC000034B18781A70034B1B68984710BDC046DA
:106BD0006C8000006880000010B5472805D1034A8A
:106BE00013780133137001F0F7FB10BD6C800000C7
:106BF000014B18707047C0464480000007B56B46D3
:106C00000A00D91D52237030C0B20B7001F002FA95
:106C10000EBD07B56B460A00D91D01236030C0B216
:106C20000B7001F0F7F90EBD07B56B460A00D91DD0
:106C300006235030C0B20B7001F0ECF90EBD00001D
:106C400070B5002401250A4B1B78A34200D870BD03
:106C500020007030C0B201F077FA002805D02B0078
:106C6000A340044A11880B4313800134E4B2EAE7DD
:106C7000448000007080000010B570300A0052217E
:106C8000C0B201F039FA10BD0020704700207047F3
:106C900010B5042107F0F0F910BD10B50400D7F7C6
:106CA00051FE0100200006221030FDF7D7F8D7F77B
:106CB00013FEA075D7F740FE102201002000FDF75B
:106CC000CDF810BD10B51C22FDF7C8F810BD002985
:106CD0000DD00B7803704B7843708B788370CB7832
:106CE000C3700B7903714B79437100238371704733
:106CF00010B51022FDF7B2F810BD0000F0B5314E0E
:106D00000821330061331B7899B01B021943050039
:106D1000342303222C48FAF79DFC03AF0400FF2D17
:106D200034D039002800FFF769FF00280FD15B231A
:106D30006B441A78230028331A70032217AB1B7890
:106D40001340033B5A42534122002A3213706946D2
:106D50002800FFF75EFF002809D16B4602221B784E
:106D60001A40DB07DB0F134322002932137028007F
:106D700001A9FFF759FF002808D16B469B88A3851E
:106D80006B46DB88E3856B461B8923862000FAF778
:106D900085FC330061331A78716800208D5432000D
:106DA0005A32128839003A8032005C3212887A8076
:106DB00032005E321288BD71BA801A783368984703
:106DC00019B0F0BDC47F0000020E000010B500F045
:106DD00029F8002010BD10B548680B6898470020BE
:106DE00010BD000010B5044B044918780A30C0B239
:106DF000FAF768FF10BDC0460206000070FD0318D8
:106E0000044B10B50400186805F0C4FF002800D03A
:106E1000046010BD907F0000014B18607047C046B1
:106E2000907F0000064B0138C1B210B5186805F01C
:106E3000F8FF0368DA0701D54068984710BDC046DF
:106E4000907F00000A4B70B504000D004260010005
:106E5000186805F0EDFF074B013019782A000A3158
:106E6000C0B2FAF7BBFA012322681343236070BD56
:106E7000907F000002060000094B10B501000400DD
:106E8000186805F0D5FF074B01301978C0B20A31F8
:106E9000FAF73EFB012322689A43226010BDC046E8
:106EA000907F00000206000000207047002070471D
:106EB0000020704700207047002070470020704776
:106EC00010B5002100F001F810BDF7B5162305003C
:106ED000027AB02001320E00534305210322000143
:106EE000FAF7B8FB032304006A7A43801107D3063C
:106EF000DB0F890F4901DB0192070B43120F13438C
:106F0000068003712B7A102243712700296806300E
:106F1000FCF7A4FF00236E6816370193019A2B7AC1
:106F2000934203D82000FAF7B9FBF7BD10223800CE
:106F30003168FCF793FFF379B2791B0213433B826C
:106F4000B3881B051B0D7B82B38808361B0B1B0304
:106F5000BB82019B16370133DBB2DEE770B506005A
:106F6000DA200D002C23032207210001FAF772FB1F
:106F7000A0230370AB7A06714370AB7B04004371AE
:106F8000291D02220630FCF769FF002323722B7BA8
:106F900063722968002904D0200006220A30FCF719
:106FA0005DFFEB7A2374EB8863612B89A3616B7BB4
:106FB0002377012363779E4208D12A7CE318DA778E
:106FC0006A7CA31CDA77AA7CE31CDA772000FAF744
:106FD00065FBAA88014B9A8170BDC046987F00006E
:106FE00010B501000020FFF7B9FF10BD0278014B7A
:106FF0001A707047947F000013B543780400032B88
:107000000BD80A4AD05C6A46237801A91371A37889
:107010005371074B1B68984713BD7E2205480649EC
:10702000FF3206F087F80020EDE7C04658FD031850
:10703000AC7F0000F8FD0318F8FE031813B56030AC
:10704000C0B20C0003280BD8094B185C6A46094BE8
:1070500054711B7801A91371074B1B68984713BD26
:107060000648074A074906F065F80020EEE7C046E3
:107070005FFD0318947F0000AC7F0000F8FD03184B
:1070800047020000F8FE031807B56A46044B50712A
:107090001B780E201371034B01A91B68984707BD8D
:1070A000A87F0000AC7F00001FB503006A461A33BA
:1070B0000093831C0193037A69469372038B1381B7
:1070C000437CD37243780F201373024B1B6898479D
:1070D00005B000BDAC7F000013B5838801AC2380F0
:1070E0000388C62B24D00BD8242B1FD0262B1BD0D3
:1070F000142B0DD00F4A1049104806F01BF809E078
:10710000C82B0DD0FD2B0DD0C72BF3D1022300E0EF
:107110000023A3700A4B210002201B68984713BD6F
:107120000123F6E70323F4E70423F2E70523F0E75E
:107130000623EEE76E020000F8FE0318F8FD0318C0
:10714000AC7F000010B5002804D061220449054836
:1071500005F0F0FF0021044B08001B68984710BDA4
:10716000F8FE0318FAFD0318AC7F000007B56A4665
:10717000037801301370837969465370024B019094
:107180001B681020984707BDAC7F000037B500286A
:1071900005D0C72215491648520005F0CBFF154D02
:1071A000EB7A002B14D00433032207211248FAF79C
:1071B00051FAEA7A0400428069680430FCF74EFE16
:1071C000AA232370AB7B20006370FAF767FA37BD00
:1071D000EB7BA87B002B02D100F0B6FCF7E7074B56
:1071E00001A908701B6809209847F0E7F8FE03180A
:1071F000FAFD0318987F0000A60D0000AC7F000088
:1072000010B5002804D067220449054805F092FF14
:10721000044B002101201B68984710BDF8FE03189D
:10722000FAFD0318AC7F000007B5074B987BDB7BAA
:10723000002B02D100F088FC07BD044B01A90870A7
:107240001B6809209847F7E7987F0000AC7F000093
:1072500007B5114801A905F087F8002805D1842257
:107260000E490F48920005F065FF6B465B79022BD3
:107270000AD80C4AD05C6B466A461B796946137083
:10728000094B1B68984707BD0848094A034905F0A0
:1072900051FF0020EFE7C046B07F0000F8FE031862
:1072A00011FF03185CFD0318AC7F0000F8FD031804
:1072B0001E0200007047000007B56A46038801A956
:1072C0009380837803209371014B1B68984707BD17
:1072D000AC7F000070B50D000400D7F7FDFA012364
:1072E00018402870D7F72EFB062201002000FCF77B
:1072F000B5FD70BD10B5044B05221860034902238B
:10730000034807F0BAFC10BDAC7F00004C7F0000C2
:10731000B07F000037B5342307210322050026483B
:10732000FAF798F9254B02000380E1239B00438084
:107330006B46991D102304000A3204200B7000F0E4
:1073400069FE002804D03E221D491E4805F0F2FEC9
:107350006B46D91D06230120221D0B7000F05AFE3A
:10736000002804D041221649174805F0E3FE2B7887
:10737000002B03D00123A27E1343A3766B78002B4E
:1073800003D00423A27E1343A376FB22032362844B
:107390000E4AE376A2840E4A00232285E28422006C
:1073A0002A32A383E383238420001370A385E3851B
:1073B000FAF774F937BDC046040D0000030F000052
:1073C000F8FE031815FE03182AFE031848080000EB
:1073D00007020000F7B508AC2778144C0425267B7B
:1073E000019333002B402E421BD1E373019B21609C
:1073F000636007215319A272A07303220C48E7723D
:10740000FAF728F9A27A0500428021680430FCF7D7
:1074100025FDA9232B70A37B28006B70FAF73EF99A
:10742000F7BDA07300F090FBFAE7C046987F00001C
:10743000A60D000000207047002070470020704714
:10744000002070470020704770B5084B05000C0005
:10745000FE2019780823FF2298400A31FAF7FAF83B
:1074600005604460FAF71AF970BDC04602060000D4
:10747000F8B5040000780D000238052830D8FCF774
:10748000C1FC03302F3F3467A378494C22005732A8
:1074900013701B070FD5230020000833243046C883
:1074A00046C346C846C302681A6022000123583208
:1074B00011780B431370636858195B5DFF2B01D182
:1074C000FFF7D8FA210063680831585DFFF7D4FB55
:1074D00000F05EFE2A0001205734217800F05CFEA7
:1074E000F8BD2A000020A178F8E7324B01201B6884
:1074F00031499847314B10211B68A01C9847EFE792
:107500002C4F01203B682E4998472C4DA61C30007B
:107510002B681021984712343B680120294998476D
:1075200020002B6806219847214D04232A002800BB
:107530005832117840300B43137031001022FCF7A1
:107540008DFC2800072221005030FCF787FCC7E79C
:10755000184D01201C492B689847184FA61C102174
:1075600030003B689847012018492B689847200055
:1075700002213B6812309847012015492B68984733
:10758000200008213B6814309847227F2B68012097
:1075900010499847064C1C22200031002430FCF78B
:1075A0005DFC0223583422781343237098E7C046C9
:1075B000C47F0000FC05000061FE0318F805000010
:1075C00052FE031880FE031871FE031892FE031882
:1075D00040FE0318A2FE0318F0B5050000780C0069
:1075E00087B00A281AD8FCF70DFC061919193D7C3A
:1075F000821B197488004D4B1A0060321278FF2AE2
:1076000007D16A7804A90A70042022001B689847F1
:1076100004E000222000110000F026FA07B0F0BDBF
:10762000424E0121320037005832137808370B439D
:1076300038000331137006F01FFD3D4B1B6898475F
:107640003083300002211A3006F016FD6B780336C5
:10765000F377384B0122009307213B00200000F014
:1076600029FADBE76B78012B09D0022B24D0002B01
:1076700028D12E4B0A000C201B6804A9C7E72C4B0D
:107680001B6898472C49CAF7CBFC2C4D0A00039184
:1076900004A8290003F040FA244B22001B6804A927
:1076A00009209847290003AA04A8FDF7B1FD20008E
:1076B000039900F08BFDB1E71C4B0A000A201B6800
:1076C00004A9A4E78E221E491E48FF3205F032FDB0
:1076D000A4E7164B01350A000D201B68049504A988
:1076E00095E7194B0122009305210023B6E7174BBC
:1076F0000122009306210023B0E70422691C03A89D
:10770000FCF7ACFB039A0D4904A803F005FAC0B2DC
:10771000062805D0A4220A490D48FF3205F00AFDCB
:10772000024B22000B201B6804A970E7C47F0000F5
:1077300010070000C56C031840420F00CAFE031872
:10774000DFFE0318B8FE03189B6C0318916C031836
:10775000BAFE0318037807B50A000B2B0DD1417848
:107760000B00223BDBB2022B08D80849CB5C01A9F5
:107770000B70074B07201B68984707BD0B1C90290F
:1077800001D2044B1B787033DBB2F0E755FD0318D0
:10779000C47F0000D0FE03180A4B10B51A006132F6
:1077A00011701A0041885A3211801A0081885C32A7
:1077B0001180C2885E331A80417A034A0A30FFF78B
:1077C000B7F910BDC47F0000FD6C031807B58378BE
:1077D0000A0001A90B70024B01201B68984707BDE6
:1077E000C47F000007B503780A0001A90B70024BA3
:1077F00008201B68984707BDC47F00000823F0B528
:107800000D0099B009020190194303220A331D4863
:10781000F9F720FF1C4E040073680027585DFF280D
:1078200020D003A9FFF7EAF9012217AB1B78134216
:1078300018D002AB9A8A019B1B889A4212D116215A
:10784000019802AB08220230C918FCF7F9FAB842D5
:1078500008D11022601C03A9FCF700FB02AB9B7F40
:107860000137637420002770F9F718FF002F06D145
:10787000062303A90B702A0007203368984719B024
:10788000F0BDC046180E0000C47F000073B5067836
:107890000D00012E2DD0022E3ED0002E28D16B4699
:1078A0001E80294B0A001B6869460E2098476B46CC
:1078B0001B88002B04D1254B6A4601930E231380AD
:1078C0006B4608211B882D020A3303229BB22943F1
:1078D0001F48F9F7BFFE002303706B461A880400A7
:1078E000428001990430FCF7B9FA2000F9F7D6FE7E
:1078F00073BD0B0208210322194315480A23F9F727
:10790000A9FE002304004380811C2A000F200E4B97
:107910001B6898472670E8E70B02082103221943E9
:107920000B480A23F9F796FE062343801833838019
:107930000023C3802D33FF330381034B0400811CDC
:107940002A0010201B68E4E7C47F0000D1FE031862
:107950000B0E000007B503780A0001A90B70024B5B
:1079600011201B68984707BDC47F000007B50A00B7
:10797000694603780B71437812204B71024B01A9C1
:107980001B68984707BDC046C47F000030B585B06E
:107990006B46DD1D01230C002B700B4B0A0002907F
:1079A000039502A902201B6898472102E1200824C0
:1079B00006230322214300012D78F9F74BFE0570C1
:1079C000F9F76CFE05B030BDC47F000010B5034B65
:1079D0000A0001001B680320984710BDC47F000007
:1079E00007B503780A0001A90B70024B05201B683C
:1079F000984707BDC47F000010B50C000121D2F7E5
:107A00005DF8072201002000FCF728FA10BD0000F5
:107A100010B5084C206004F09DFD2200072158326B
:107A2000137860608B431370FF2360342370FFF77B
:107A300007F910BDC47F000010B50C00082100023A
:107A40000143032206230648F9F704FE14230370BA
:107A500023884380034B8380F9F720FE10BDC04686
:107A60002B0E00009042000037B51300094A0D00AC
:107A700000920A000121040000F01CF8002D07D03C
:107A8000054920000B00503160331C70FFF7B4FF34
:107A900037BDC046CF6C0318C47F000007B5044A49
:107AA0000B0000920421012200F004F807BDC0463B
:107AB000F16C0318F8B50F000821000216001D0034
:107AC0000322014322230748F9F7C4FD04002900DB
:107AD00007704670069B023098472000F9F7DEFDDC
:107AE000F8BDC046140E0000F0B585B005001600C4
:107AF0001F0003223A2301910F480721F9F7AAFD3D
:107B0000A42304000370390045700230B047200000
:107B1000F9F7C4FD019A02AB084803A91D715A7117
:107B200004F04BFC002805D1A02205490548FF328E
:107B300005F000FB05B0F0BDA10D0000B07F000016
:107B4000F8FE031811FF0318002310B51900024AAC
:107B5000FFF7CAFF10BDC0460D63031806230902D4
:107B600010B51943048803220448F9F773FD002374
:107B7000048043800371F9F791FD10BD180C0000DB
:107B80007FB5030000780A000238112814D8FCF7EA
:107B900039F9333333333333131313131F291313C7
:107BA000131309156846598881805B7801A9837190
:107BB0000220164B1B68984707B000BD68465988DD
:107BC00081805B7801A98371104B03201B68F2E769
:107BD0006846598881805B7801A983710B4B0B2023
:107BE0001B68E8E76846598881805B7801A9837142
:107BF000064B0C201B68DEE76846598881805B785D
:107C000001A98371014B0D201B68D4E72880000077
:107C100030B587B06A4603880400138180780D0070
:107C200000F060F96B469872044B03342A00092077
:107C30001B68019401A9984707B030BD2880000057
:107C400070B5038886B001ADAB8043880400EB803B
:107C500003790E002B72407900F044F9054B06348D
:107C600068723200290008201B680194984706B00A
:107C700070BDC0462880000070B586B0438801AD55
:107C8000AB8083880400EB8080790E0000F02AF935
:107C9000054B0734A8723200290007201B680194A5
:107CA000984706B070BDC0462880000070B50388B4
:107CB00086B001ADAB8043880400EB8000790E00F4
:107CC00000F010F9054B0534287232002900062017
:107CD0001B680194984706B070BDC046288000001C
:107CE00010B586B06A4683880C0093804388D380A1
:107CF000831D02930378122B04D0602205490648A5
:107D000005F018FA054B220004201B6801A99847CA
:107D100006B010BD56FF031818FF03182880000096
:107D200010B586B06A4683880C0093804388D38060
:107D3000831D02930378132B04D05622054906486D
:107D400005F0F8F9054B220005201B6801A99847AA
:107D500006B010BD56FF031836FF03182880000038
:107D60007FB503880A0001A90B80034B0E201B6816
:107D7000984707B000BDC046288000007FB5038843
:107D80000A0001A98B804388CB80838806300B8151
:107D9000034B01901B680A20984707B000BDC046FE
:107DA0002880000010B503000088024A00F052F855
:107DB00010BDC0465986031810B503000088024A5A
:107DC00000F048F810BDC046758603188088013160
:107DD000401880B27047000010B504000248FAF75E
:107DE00055FC024B1C6010BD2C8000002880000058
:107DF000F7B50F0006211D0008AB1E880002B31D59
:107E00000192014303229BB20848F9F723FC0400C6
:107E1000019B320029000780468003710530FCF782
:107E20001DF82000F9F73AFCF7BDC046140C00001D
:107E300013B5049C01941224009400F025F813BD9E
:107E400010B59080917102481100FAF735FC10BD11
:107E50002C80000070B515000E001900094B0400BD
:107E6000186800280BD08288944209D983799B181E
:107E70009C4205DC013CA21A3300D2B2A84770BD77
:107E80000068EEE72C800000F7B51D0008AB1B78FA
:107E900016000193099B124F0091002B01D03A88E4
:107EA0001A8006212B0000020143C120083303225F
:107EB0009BB20001F9F7CEFB0400019B3100037077
:107EC0003B88C5805A1C4380009B3A8083802A00EF
:107ED0000830FBF7C3FF2000F9F7E0FBF7BDC04611
:107EE0006E80000003000120042B03D0103B5A4297
:107EF0005341580070470020704700207047002011
:107F00007047002070470020704700207047002015
:107F10007047002070470000002310B50400036282
:107F200043621B4B8AB0436106F08BFC23002C3369
:107F3000187006F084FC23002D331870154BA362D3
:107F4000154B2360154B6360154BE361154BA36123
:107F5000FEF72AFC25236A461370243B69465A1E05
:107F6000CA5401330C2BF9D11A330B73193B6946F0
:107F70009A1ECA540133272BF9D1802102AAD37744
:107F8000684628224900F8F7EBFB0AB010BDC0464E
:107F900015E80318FD690318CDE7031835E5031844
:107FA000D1E703180DE80318002070470020704740
:107FB000002070470020704710B50420F8F760FEDD
:107FC000F8F732FD023843425841C0B210BD0000FC
:107FD00010B5041E0DD153220A490B4805F0AAF82A
:107FE0000A4BA1B2186806F079FE431E9841C0B250
:107FF00007E01228F4D801238340054A05201342E4
:10800000EED010BD70FF031889FF031840800000F8
:1080100080E00600F7B505000E001400002813D11B
:108020001A222A492A4805F085F86A4633782948F1
:10803000D3806B4622000068A9B2063307F0D0F85F
:1080400000283ED0012020E007282FD01ED801288C
:10805000EBD10B78052B20D906276B460F7001005A
:108060001C48DB1900681F8007F0BAF800280CD004
:108070003A002100302004F022FBE3192278FF2A85
:108080000DD101349C42F9D12800FEBD112808D041
:108090001228CAD10123137006E00425F4E7002555
:1080A000F2E704F0CDF920700020EEE70B78042011
:1080B000012BEAD902230B70F2331370F33B537098
:1080C000F2E76B46DB883370DFE7C04670FF0318CA
:1080D00089FF03184080000010B5044B044A19685A
:1080E000044806F01FFF002010BDC04650160000D7
:1080F000FEFF00004080000070B504000E00150077
:1081000000280FD16C220C490C4805F013F80C48DC
:10811000B3B22A000068A1B207F0C8F8431E984124
:10812000C0B207E01228F2D801238340054A052097
:108130001342ECD070BDC04670FF031889FF0318CE
:108140004080000080E0060010B5041E0AD186229F
:108150000C490D4804F0EEFF0C4BA1B2186807F073
:1081600071F810BD01381128F6D8FBF741FE09F56A
:10817000F5F5F5F509F5F5F5F5F5090909F5090937
:108180000120EEE770FF031889FF0318408000000C
:1081900010B507F0D7F810BD094B73B51D000726C1
:1081A00058352C78B4432C701C00FF2560342570A2
:1081B0006C461B6820716171062001A9984773BD48
:1081C000C47F0000002070470020704730B50400D5
:1081D0000D0087B00C22019103A80021FBF75AFE85
:1081E000200002A90295FFF759FC07B030BD00201E
:1081F0007047002070470000014B024A1A60704728
:10820000A001000009820318C3B210B5462B21D883
:108210000020132B29D9153B1800312B30D8FBF740
:10822000F1FD334E51484B2C29363942453C3F54E1
:1082300057C35AC15D6066636C69726F84818A87B7
:1082400078757E7B8D909396999CA5A89FA2ABAEE6
:10825000B1B4B7BAC82B00D1A0E007D8C62B00D163
:10826000A4E0C72B00D19BE0002010BDFD2BFBD16B
:108270004F4B06E0FFF74DFEF7E7FFF748FEF4E748
:108280004C4B1B689847F0E7FFF7D4F8EDE7FEF793
:10829000FDFCEAE7FEF7F8FCE7E700F019FAE4E78F
:1082A00000F014FAE1E7FFF730FEDEE7FFF72BFE00
:1082B000DBE7FFF7C5F8D8E7FFF7C4F8D5E700F02C
:1082C00086F8D2E700F085F8CFE700F0D7F8CCE7E2
:1082D00000F0D2F8C9E7FEF71BFAC6E7FFF70FFE7A
:1082E000C3E7FFF70EFEC0E7FFF705FEBDE7FFF7A8
:1082F00004FEBAE700F0BCF8B7E700F0BBF8B4E75B
:10830000FEF7DAFDB1E7FEF7D9FDAEE7FEF7D0FDE7
:10831000ABE7FEF7CFFDA8E7FFF74AFEA5E7FFF7BB
:1083200049FEA2E7FEF720F89FE7FEF71FF89CE75B
:10833000FFF748FF99E7FFF747FF96E7FFF736FE9D
:1083400093E7FFF731FE90E7FFF778F88DE7FFF747
:1083500073F88AE700F0C8F987E700F0C3F984E70B
:10836000FEF7DAF981E7FEF7D5F97EE700F0B4F918
:108370007BE700F0AFF978E700F0B2F975E700F0BD
:10838000ADF972E7FFF735FF6FE7FFF730FF6CE7F6
:10839000FEF78CFD69E7FEF787FD66E7064B70E7A1
:1083A000064B6EE7064B6CE7064B6AE7064B68E741
:1083B000C07F0000BC7F00003C80000038800000CF
:1083C00034800000607F0000587F0000704700206C
:1083D000704700207047000000220121F0B51E4BBD
:1083E0001E4C1F781E4B97B01E882378D8B2874248
:1083F0002BD935001D4101330D4224D0002A00D075
:10840000207001A9FEF7FAFB15AB1B785B071CD5A2
:108410001823032207211348F9F71CF91723040036
:108420000370163B437006220F490230FBF716FD1E
:108430002000102208300FA9FBF710FD2000F9F7EB
:108440002DF917B0F0BD0A00D0E700232370074BC9
:10845000FF201B689847F4E7448000006C80000010
:1084600070800000140D0000608000006880000033
:1084700000207047002070470020704700207047A0
:1084800000B5734606F01EFB00BD0000F0B5354C8C
:10849000354D2560354C364D2560364C364D2560C2
:1084A000364C374D2560374C374D2560374C384DAD
:1084B0002560384C384D2560384C394D2560394C95
:1084C000394D2560394C3A4D25603A4C3A4D25607E
:1084D0003A4C3B4D25603B4C3B4D25603B4C3C4D65
:1084E00025603C4C3C4D25603C4C3D4D25603D4C51
:1084F0003D4D25603D4C3E4D25603E4C3E4D25603A
:108500003E4C3F4D25603F4D3F4C25603F4C404D1C
:10851000404E2560404C414D2560414C414D256009
:10852000414C424D2560424C424D2560424D434CEA
:1085300025608408A7007F1937608E083619404FE0
:10854000B40064193C609408A419A40064193D4D5A
:108550002C603D4C20603D4801603D490A603D4A29
:108560001360F0BD40010000CC1600004401000083
:10857000D8160000F0000000D016000048010000EE
:10858000EC2C00009C010000D82C0000F40000003E
:10859000D9160000DC000000D4160000E000000046
:1085A000DA16000054030000542E000058030000A7
:1085B000AC2E00004C030000842E0000500300008D
:1085C000F42E00008C040000282D00009004000010
:1085D000E116000094040000562F000090050000F2
:1085E000342D0000B0050000402D0000980500006B
:1085F0004C2D0000A4050000582D0000840300004D
:10860000602F0000642D00007C0300008003000048
:10861000242F0000BC050000B4010000DB160000A0
:10862000D4010000DE160000300300003C2E0000E4
:10863000AC060000F82C0000882F0000C0050000E8
:10864000C4050000C8050000EC050000E8050000B6
:10865000F0050000F405000010B586B001A90A710C
:10866000034A0190146800201A00A04706B010BD0C
:108670002880000070B586B01C006B460D00DE1C23
:1086800000233370AB1D0190039602936B8801A900
:108690008B81AB880120CB810A4B0A741B682200B6
:1086A00098472102062404230322214306482D88EB
:1086B0003678F8F7CFFF05808670F8F7EFFF06B041
:1086C00070BDC04628800000160C000000207047D6
:1086D000002070470020704700207047002070473E
:1086E00000207047002070470020704703B4014805
:1086F000019001BDC309000003B40148019001BD10
:10870000390A000003B40148019001BDD1090000FD
:1087100003B40148019001BDF107000003B4014812
:10872000019001BD4D09000003B40148019001BD55
:10873000F508000003B40148019001BD19090000CB
:1087400003B40148019001BD2109000003B40148B0
:10875000019001BD550A000003B40148019001BD1C
:10876000410A000003B40148019001BD3D0B000027
:1087700003B40148019001BD4F09000003B4014852
:10878000019001BD7B0C000003B40148019001BDC4
:10879000B913000003B40148019001BD9508000021
:1087A00003B40148019001BD270B000010B5FEF78E
:1087B00049F804F0D9FE02F0C7FF002003F04AF8A0
:1087C00000F002F810BD00000D20002809DBC206F1
:1087D000D20E01219140044A1160BFF34F8FBFF3C5
:1087E0006F8F00BF7047000080E100E01B48006809
:1087F000402188430821084318490860084640681A
:108800000321890588431549486000BF0A4650681E
:108810000123DB0502469A431A4311460F4A516071
:1088200000BF00BF0D48406B012149040840400CC7
:108830000028F7D00948806B3F2109060840000E48
:108840000749487000BF054A50680123DB0502460E
:108850009A431146014A516000BF704700740040BE
:10886000591600001FB5044B0FCB6C460FC4684669
:10887000FEF7B6FB1FBD000014F9031838B5044617
:1088800003480068009069462046FFF7D5F838BDD8
:1088900010F90318F8B504460D460026042C0DD136
:1088A00021460A48FFF792FA06460220009008483F
:1088B0000022314643682846FFF79AFA224605A16E
:1088C00001200B4B1B689847F8BD0000781400008E
:1088D000AC140000492F4E4F5F5441473A67617412
:1088E00074206174745F6964783A20256400000024
:1088F000FC050000F8B5054614461E46012D78D14A
:108900004548407B002805D144A101204B4A12680C
:1089100090477FE0002040494873084600890019CD
:108920000121C90288423ADD3B4909683A4B1B895B
:10893000C818394909890123DB025A1A3146FCF764
:1089400039FC354B1B890127FF02FB1AE21A324B17
:108950001B89F719F91A304B1868FCF72BFC3848BB
:108960008078012812D136480078012807D12A489A
:1089700001893448224603683348984706E0264870
:1089800001893248224603682F48984722480089C7
:108990000121C902081A201A1F49088124E01E4932
:1089A00009681D4A1289881822463146FCF702FCE4
:1089B00023488078012812D121480078012807D166
:1089C000154801891F48224603681F48984706E05A
:1089D000114801891D48224603681B4898470E48E4
:1089E000008900190C49088101200B49487311E0E6
:1089F000FFE7042D0ED1022C00D105E0FF22FB324F
:108A000013A118A004F096FB194922464868314684
:108A1000FCF7D0FBF8BD00007C150000492F4E4F3D
:108A20005F5441473A747820627573792C206461F1
:108A3000746120646973636172642100FC05000045
:108A40006814000024160000981500002C16000081
:108A50004253505C4273705F426C7565746F6F7403
:108A6000682E630032203D3D206C656E677468009F
:108A7000AC14000010B50548FEF73CFC0448FEF7B6
:108A8000C7FF0448FFF7A8F910BD0000FD8B0318CD
:108A9000558D0318558E031838B51F484089002896
:108AA00038DD1D48007B012834D100201A490873A5
:108AB00003211A48FFF78AF9054619494968498888
:108AC000C81EF42102F09EFF13494989884207D24B
:108AD000134949684988C81EF42102F093FF01E058
:108AE0000D48408984B20C484089001B0A494881DE
:108AF000002000904A680A49087A23462946FFF771
:108B000097F9054B5A895B681919034B5868FCF7AC
:108B100051FB00BF38BD00007C1500007814000038
:108B2000AC14000038B516480068007BFF2800D060
:108B300005E0FF22843213A117A004F0FBFA0A20FB
:108B40000F490090096823A3082208690121FDF755
:108B5000E5FB0B490968097C401AC4B20020084AA9
:108B6000009012681169064A1268107B1C4B22465D
:108B7000FEF730FC1BA101201F4A1268904738BD48
:108B8000AC1400004253505C4273705F426C7565D8
:108B9000746F6F74682E63004273705F426C75650A
:108BA000546F6F74682E626C655F6164765F696E86
:108BB000666F5F496E7374616E63652D3E626C65AE
:108BC0005F6164765F68616E646C6520213D203072
:108BD000786666003532306361696D656900000052
:108BE00018170000492F4E4F5F5441473A61647691
:108BF0002073746172740000FC05000038B50446EF
:108C00000D4622462BA10120314B1B6898472300BB
:108C100001F0CFFF09060C4C2A324C4C4C464C005C
:108C2000002000906846FEF775FB40E0294909687E
:108C300088686946FEF74EFB6846027826A1012047
:108C4000234B1B6898472349096888680621294AED
:108C5000126890472848FEF733F92849086880478A
:108C600027498868804722E02888264A0521FFF79F
:108C7000E7F8FFF7F7FD1AE06878002800D104E074
:108C8000D82221A125A004F055FA287811490968B5
:108C900008732A488078012801D1FFF743FF06E0D6
:108CA00027A101200A4A1268904700E000BF00BFD8
:108CB00038BD0000492F4E4F5F5441473A5B446531
:108CC00076696365206576743A25645D000000006E
:108CD000FC050000AC140000492F4E4F5F54414783
:108CE0003A747970653A2025642C20616464723A84
:108CF00000000000F805000004F903182016000029
:108D000058150000781400004253505C4273705FA5
:108D1000426C7565746F6F74682E630030203D3D42
:108D2000206576742D3E6F626A5F6372656174655B
:108D3000642E737461747573000000006814000081
:108D4000492F4E4F5F5441473A6164762073746FE8
:108D50007021000070B504460E461546224620A13B
:108D60000120254B1B689847230001F022FF0504D2
:108D70001533343536002148C8220221C36800204B
:108D8000984701201E4948701E4805721EA1012007
:108D9000194A1268904721E0002019494870FF20C5
:108DA000184908721648807801280DD114480079B6
:108DB000012809D01148FF22F5320121C3680020A3
:108DC000984710490869804718A101200A4A12688B
:108DD000904703E002E001E000E000BF00BF70BD8B
:108DE000492F4E4F5F5441473A5B6761702065766B
:108DF0003A2025645D000000FC05000064150000B9
:108E000068140000AC140000492F4E4F5F544147D6
:108E10003A2E2E2E2E2E2E2E636F6E6E6563746587
:108E200064212E2E2E2E2E2E2E000000492F4E4F66
:108E30005F5441473A2E2E2E2E2E2E2E64697363D8
:108E40006F6E6E6563746564212E2E2E2E2E2E2E6F
:108E50000000000070B505460C4616462A4622A1C1
:108E60000120274B1B689847002D06D0012D0ED0FE
:108E7000022D18D00E2D2FD11EE022A10120204A54
:108E80001268904720793146FFF704FD2AE023A1BC
:108E900001201B4A12689047E289207C31466368B2
:108EA000FFF728FD1EE023A10120154A1268904714
:108EB00001202649087315E0208825494968488023
:108EC00023484068428823A101200D4B1B68984726
:108ED0003046FFF7D3FC05E024A10120084A1268C0
:108EE000904700BF00BF70BD492F4E4F5F544147B0
:108EF0003A5B676174742065763A2025645D0000F2
:108F0000FC050000492F4E4F5F5441473A6761749A
:108F1000742072656164207265710000492F4E4FA4
:108F20005F5441473A6761747420777269746520B1
:108F300072657100492F4E4F5F5441473A67617423
:108F400074206E746620646F6E6500007C150000EE
:108F5000AC140000492F4E4F5F5441473A6761748B
:108F600074206D74753A202564000000492F4E4F1F
:108F70005F5441473A67617474206E6F7420686172
:108F80006E646C656421000038B5054600F0E8FFAA
:108F9000002000900449087804496B4601224C687F
:108FA0000349A047002038BDC02900002416000056
:108FB0002C40000038B5054600200090074908788D
:108FC00007496B4601224C680649A0470648C0780D
:108FD000012108430449C870002038BDC0290000A1
:108FE000241600002E4000006814000038B5054625
:108FF000134800F0D5F8124800688068010E6846F2
:1090000001700F48006880680002010E68464170D8
:109010000B48006880680004010E684681700848AB
:1090200000688068C1B26846C17006490878064980
:109030006B4604224C680549A047002038BD00005B
:10904000C4140000C029000024160000288000007D
:109050007CB50546204800F0A3F81F48006800686A
:10906000010E684601701C48006800680002010E8D
:10907000684641701848006800680004010E6846A0
:109080008170154800680068C1B26846C170124816
:1090900000684068010E684601710F48006840682A
:1090A0000002010E684641710B48006840680004E8
:1090B000010E68468171084800684068C1B2684680
:1090C000C1710649087806496B4608224C68054973
:1090D000A04700207CBD0000C4140000C02900008F
:1090E000241600002680000038B5044608480178A0
:1090F000204600F067F800200090054908780549EF
:109100006B4601224D680449A847002038BD000085
:10911000C0290000241600002840000038B504468D
:109120001B488089205C00021949C8811948012127
:10913000426917480C3090471548C08914498989FD
:10914000615C40181249C8811248012142691048E7
:109150000C3090470E488088801E0D49888020463C
:1091600000F090F8002811D10948C0890112684622
:1091700001700748817B68464170054908780649B7
:109180006B4602224D680549A84700BF002038BD44
:10919000C02900007C150000241600002A400000B1
:1091A000014901607047000000BE071870B5044611
:1091B0002546261D286880F3088800BF62B63068FF
:1091C000804770BD70B504460D462648FFF7E8FF9E
:1091D0002448006800682449086022480068406804
:1091E000486020480068806888600020C8601D488A
:1091F000006880681D49884203D11D481A490861EA
:1092000008E01848006880681949884202D1174868
:109210001549086117488089205C00061249486199
:109220000846416913488089401C205C00040818E6
:109230000D494861084641690E488089801C205CC0
:1092400000020818084948610846416909488089B0
:10925000C01C205C08180449486100208861084649
:10926000C56170BDC41400009419000000400318CB
:10927000007F0518C0290000014901607047000007
:10928000007E0518FEB5054600273749C889C10F7D
:109290000918491002913449C889C10F09184910A9
:1092A0004900411A89B201913048016902980002CF
:1092B0000C182F4801680298085C002807D1204646
:1092C00003F0DEF901212A48026802981154264869
:1092D00080892549898840180121C90288421BDB01
:1092E00021488089081A80B200901F4A928951193A
:1092F000019AD2011019009A03F01FFA1A498B88BB
:109300000099591A8AB20199C9010B190099581884
:10931000294603F012FA08E0134B9A889B895919E1
:10932000019BDB01181903F008FA002607E00198F9
:10933000C0010019805DC01987B2701C86B20A484E
:109340008088B042F3DC0848C0890012C01987B297
:109350000548807BC01987B20348C088B84201D055
:109360000120FEBD0020FCE7C02900009419000088
:10937000CC14000010B5082003F0C1FB092003F055
:10938000BEFB072003F0A3FB0121072003F010FC24
:10939000002003F09CFB0121002003F009FC1F20AA
:1093A00003F095FB01211F2003F002FC012108209E
:1093B00003F094FC0121092003F090FC10BD000093
:1093C00010B500200349087001210D2003F086FC30
:1093D00010BD00006415000070B504460E46154629
:1093E000002E06D0012E13D0022E21D0032E43D101
:1093F0002EE0002C09D10020204908702049088067
:1094000001210D2003F06AFC00E000BF00BF33E043
:10941000002C0AD101201949087008464580FF2018
:10942000888000201649088000E000BF00BF23E0CC
:10943000002C0AD1022011490870084645800620F8
:10944000888000200E49088000E000BF00BF13E0C4
:10945000002C0ED1032009490870084645800220DF
:10946000888000200649088001210D2003F036FC89
:1094700000E000BF00BF00BF00BF70BD641500006A
:10948000B429000010B50D2003F039FB01210D2097
:1094900003F024FC0348FF22F5320121C3680020B9
:1094A000984710BD6415000010B5164800780028D4
:1094B00026D0154800881349498888421BDD114889
:1094C0008088002813D00D2003F0A7FB0D4880886A
:1094D000FF280CD00B488088401E0A498880084627
:1094E0008088002803D101210D2003F0F7FB002024
:1094F0000549088004E004480088401C02490880AF
:1095000010BD000064150000B429000010B502462B
:109510000B460020002104E0545C2418A0B24C1C2F
:10952000A1B29942F8DB10BD70B504460D46782013
:10953000015B681C814222DD78231B5B5B1B5B1E89
:10954000062673431A466B1C7343191933466B4343
:109550001819FBF72FFE00217820005B401E062221
:109560005043001941807820005B401E5043215237
:109570007820005B401E5043001981800BE00021E1
:1095800006206843001941800620684321520620C6
:109590006843001981807820005B401E81B27820EA
:1095A000015370BDFEB505460C460026002700207D
:1095B000019001204D490872208848814C480221C1
:1095C0004269204690472088285C484908704848EE
:1095D00001214269204690472088285C4349487011
:1095E0004348012142692046904720882E5C40482C
:1095F000012142692046904720882F5C3002C01923
:109600003A4948803A4801214269204690472088DB
:109610002E5C3748012142692046904720882F5C04
:109620003002C01931498880084680880121C9026A
:10963000884204DD00202D4908720120FEBD2C481F
:1096400001214269204690472088284988810846A0
:109650008188274842692046904720882E5C24480C
:10966000012142692046904720882F5C3002C019B2
:109670001E49C88008468089898840180121C9028E
:1096800088421BDD19488089081A80B2009017496A
:10969000898948190099FFF739FF0199401880B26C
:1096A0000190124882880098101A81B22846FFF76C
:1096B0002DFF0199401880B2019006E00B4A918875
:1096C00092895019FFF722FF01900848C18801983C
:1096D000814204D00020054908720220AEE7044808
:1096E00001214269204690470020A7E7C0290000D9
:1096F0007C15000010B50446204600F0D5F810BDDA
:10970000F8B504460E4617467EE0002551E00620D7
:10971000684300198088401C81B206206843001904
:1097200081800620684300198088022804D0072819
:109730000DD008281DD111E0E06F805D5A2805D0BA
:10974000E9B22046FFF7F0FE681E85B212E0E06F36
:10975000805D010206206843215200BF0620684355
:10976000205AE16F895D401881B20620684321527A
:1097700000BF00BF00BF0620684300198188062093
:109780006843205A0A30814211D106226A431219D5
:10979000911CE06FFFF706FF002802D1E06FFFF792
:1097A000A9FFE9B22046FFF7BFFE681E85B2681C1C
:1097B00085B27820005BA842A9DCE06F805DA52817
:1097C00019D17820005B0621484300198088401C8D
:1097D00081B27820005B06225043001981807820F6
:1097E000005B06214843001946807820005B401C3E
:1097F00081B278200153701C86B20120C0028642DB
:1098000000D10026781E87B2002F00D07DE700200F
:10981000F8BD0000FFB5A3B00E4615460024A520F4
:1098200001A90855641C5A200855641C0E200855CF
:10983000641C23980855641C30120855641C0E558E
:10984000641C28120855641C0D55641C21940027C3
:1098500007E02698C05D01A90855601C84B2781CF9
:10986000C7B2AF42F5DB01AA219950182946FFF78C
:109870004DFE22902298001201A90855601C84B266
:1098800022980855601C84B2FEF730FF009005480E
:109890002146026901A890470098FEF72DFF27B0E6
:1098A000F0BD00007C150000F8B5044600253A48DC
:1098B00080880A3085B23848407804283AD00E288B
:1098C00066D135484088354A811A904220D008DC5C
:1098D0003349401800280CD002280FD0042826D184
:1098E00011E02F482F300818002816D002281ED16A
:1098F00018E02C4841682046884719E02948C1688B
:109900002046884714E027480169204688470FE031
:1099100024484169204688470AE022488169204658
:10992000884705E01F48C1692046884700E000BF1E
:1099300000BF2EE0FEF7DAFE06461B48C08840193D
:109940000121C902884215DD174BDB880F46FB1A3F
:1099500099B2154BDB881819144B1A6990471248B5
:10996000C0883B46181A281A81B21048026920465E
:10997000904709E00C4B1B7919460A310A4BDB88EA
:1099800018190A4B1A6990473046FEF7B5FE00E0F9
:1099900000BF00BFF8BD0000C02900002D4000003E
:1099A000D9BFFFFFCC140000D02900007C150000B7
:1099B00010B502460B460020002104E0545C241838
:1099C000E0B24C1CA1B29942F8DB10BD70B5044660
:1099D0000D467820015B681C814222DD78231B5BE9
:1099E0005B1B5B1E062673431A466B1C73431919D7
:1099F00033466B431819FBF7DDFB00217820005B31
:109A0000401E06225043001941807820005B401E12
:109A1000504321527820005B401E50430019818042
:109A20000BE00021062068430019418006206843AE
:109A3000215206206843001981807820005B401E77
:109A400081B27820015370BD08B5C021684601700D
:109A5000002141700A4802780AA101200E4B1B68C0
:109A60009847074908786B460222002100F024F944
:109A70000A498869804701200949087008BD00002B
:109A8000D0290000492F4E4F5F5441473A7372630B
:109A90003A20257800000000FC0500007C1500003D
:109AA00068140000F8B505460C4600270026012082
:109AB000474948712088C8804648012142692046AC
:109AC00090472088285C42494870268841480121F7
:109AD0004269204690472088285C3D4908703D48EF
